{
  "contractName": "owned",
  "abi": [
    {
      "constant": true,
      "inputs": [],
      "name": "owner",
      "outputs": [
        {
          "name": "",
          "type": "address"
        }
      ],
      "payable": false,
      "stateMutability": "view",
      "type": "function"
    },
    {
      "constant": false,
      "inputs": [
        {
          "name": "newOwner",
          "type": "address"
        }
      ],
      "name": "transferOwnership",
      "outputs": [],
      "payable": false,
      "stateMutability": "nonpayable",
      "type": "function"
    },
    {
      "inputs": [],
      "payable": false,
      "stateMutability": "nonpayable",
      "type": "constructor"
    }
  ],
  "bytecode": "0x6060604052341561000f57600080fd5b336000806101000a81548173ffffffffffffffffffffffffffffffffffffffff021916908373ffffffffffffffffffffffffffffffffffffffff1602179055506101ce8061005e6000396000f30060606040526004361061004c576000357c0100000000000000000000000000000000000000000000000000000000900463ffffffff1680638da5cb5b14610051578063f2fde38b146100a6575b600080fd5b341561005c57600080fd5b6100646100df565b604051808273ffffffffffffffffffffffffffffffffffffffff1673ffffffffffffffffffffffffffffffffffffffff16815260200191505060405180910390f35b34156100b157600080fd5b6100dd600480803573ffffffffffffffffffffffffffffffffffffffff16906020019091905050610104565b005b6000809054906101000a900473ffffffffffffffffffffffffffffffffffffffff1681565b6000809054906101000a900473ffffffffffffffffffffffffffffffffffffffff1673ffffffffffffffffffffffffffffffffffffffff163373ffffffffffffffffffffffffffffffffffffffff1614151561015f57600080fd5b806000806101000a81548173ffffffffffffffffffffffffffffffffffffffff021916908373ffffffffffffffffffffffffffffffffffffffff160217905550505600a165627a7a72305820a5eeda767659e1abf3b833ec15b5a255ab2413f0fd6e150c1700c297061eb52e0029",
  "source": "pragma solidity ^0.4.16;\n\ncontract owned {\n    address public owner;\n\n    function owned() {\n        owner = msg.sender;\n    }\n\n    modifier onlyOwner {\n        require(msg.sender == owner);\n        _;\n    }\n\n    function transferOwnership(address newOwner) onlyOwner {\n        owner = newOwner;\n    }\n}\n\ncontract MyToken is owned {\n\tmapping (address => uint) public balanceOf;\n\tmapping (address => bool) public frozenAccount;\n\tstring public name;\n\tstring public symbol;\n\tuint8 public decimals;\n\tuint public totalSupply;\n\tuint256 public sellPrice;\n    uint256 public buyPrice;\n    uint minBalanceForAccounts;\n\tevent Transfer(address indexed from, address indexed to, uint256 value);\n\tevent FrozenFunds(address target, bool frozen);    \n\n\tfunction MyToken(\n\t\tuint256 _initialSupply, \n\t\tstring _tokenName, \n\t\tstring _tokenSymbol, \n\t\tuint8 _decimalUnits,\n\t\taddress _centralMinter\n\t\t) {\n\t\tif (_centralMinter != 0) owner = _centralMinter;\n\t\ttotalSupply = _initialSupply;\n\t\tbalanceOf[msg.sender] = _initialSupply;\n\t\tname = _tokenName;\n\t\tsymbol = _tokenSymbol;\n\t\tdecimals = _decimalUnits;\t\t\n\t}\n\n\tfunction setMinBalance(uint minimumBalanceInFinney) onlyOwner {\n         minBalanceForAccounts = minimumBalanceInFinney * 1 finney;\n    }\n\n\tfunction setPrices(uint256 newSellPrice, uint256 newBuyPrice) onlyOwner {\n        sellPrice = newSellPrice;\n        buyPrice = newBuyPrice;\n    }\n\n    function buy() payable returns (uint amount){\n        amount = msg.value / buyPrice;                    // calculates the amount\n        require(balanceOf[this] >= amount);               // checks if it has enough to sell\n        balanceOf[msg.sender] += amount;                  // adds the amount to buyer's balance\n        balanceOf[this] -= amount;                        // subtracts amount from seller's balance\n        Transfer(this, msg.sender, amount);               // execute an event reflecting the change\n        return amount;                                    // ends function and returns\n    }\n\n    function sell(uint amount) returns (uint revenue){\n        require(balanceOf[msg.sender] >= amount);         // checks if the sender has enough to sell\n        balanceOf[this] += amount;                        // adds the amount to owner's balance\n        balanceOf[msg.sender] -= amount;                  // subtracts the amount from seller's balance\n        revenue = amount * sellPrice;\n        require(msg.sender.send(revenue));                // sends ether to the seller: it's important to do this last to prevent recursion attacks\n        Transfer(msg.sender, this, amount);               // executes an event reflecting on the change\n        return revenue;                                   // ends function and returns\n    }\n\n\tfunction mintToken(address target, uint256 mintedAmount) onlyOwner {\n        balanceOf[target] += mintedAmount;\n        totalSupply += mintedAmount;\n        Transfer(0, owner, mintedAmount);\n        Transfer(owner, target, mintedAmount);\n    }\n\n    function freezeAccount(address _target, bool _freeze) onlyOwner {\n    \tfrozenAccount[_target] = _freeze;\n    \tFrozenFunds(_target, _freeze);\n    }\n\n\t// function transfer(address _to, uint256 _value) {\n\t// \trequire(balanceOf[msg.sender] >= _value && balanceOf[_to] + _value >= balanceOf[_to]);\n\t// \tbalanceOf[msg.sender] -= _value;\n\t// \tbalanceOf[_to] += _value;\n\t// \tTransfer(msg.sender, _to, _value);\n\t// }\n\n\t/* Internal transfer, only can be called by this contract */\n    function _transfer(address _from, address _to, uint _value) internal {\n        require (_to != 0x0);                               // Prevent transfer to 0x0 address. Use burn() instead\n        require (balanceOf[_from] > _value);                // Check if the sender has enough\n        require (balanceOf[_to] + _value > balanceOf[_to]); // Check for overflows\n        require(!frozenAccount[_from]);                     // Check if sender is frozen\n        require(!frozenAccount[_to]);                       // Check if recipient is frozen\n        balanceOf[_from] -= _value;                         // Subtract from the sender\n        balanceOf[_to] += _value;                           // Add the same to the recipient\n        Transfer(_from, _to, _value);\n    }\n\n}",
  "sourcePath": "/Users/albert/ethereum/ethorgtoken/contracts/MyToken.sol",
  "compiler": {
    "name": "solc",
    "version": "0.4.18+commit.9cf6e910.Emscripten.clang"
  },
  "schemaVersion": "1.0.1",
  "updatedAt": "2017-11-08T16:44:22.898Z"
}